:020000040000fa
:080000000002040000000000f2
:020000040000fa
:04000800ec03000005
:020000040000fa
:04000c00ec03000001
:020000040000fa
:04001000ec030000fd
:020000040000fa
:04001400ec030000f9
:020000040000fa
:04001800ec030000f5
:020000040000fa
:04001c00ec030000f1
:020000040000fa
:04002000ec030000ed
:020000040000fa
:04002400ec030000e9
:020000040000fa
:04002800ec030000e5
:020000040000fa
:04002c00ec030000e1
:020000040000fa
:04003000ec030000dd
:020000040000fa
:04003400fa020000cc
:020000040000fa
:04003800ec030000d5
:020000040000fa
:04003c00ec030000d1
:020000040000fa
:04004000ec030000cd
:020000040000fa
:04004400ec030000c9
:020000040000fa
:040048004803000069
:020000040000fa
:04004c00ec030000c1
:020000040000fa
:04005000ec030000bd
:020000040000fa
:04005400a403000001
:020000040000fa
:040058007803000029
:020000040000fa
:04005c00520300004b
:020000040000fa
:04006000ec030000ad
:020000040000fa
:04006400ec030000a9
:020000040000fa
:04006800ec030000a5
:020000040000fa
:04006c00ec030000a1
:020000040000fa
:04007000ec0300009d
:020000040000fa
:04007400ec03000099
:020000040000fa
:04007800ec03000095
:020000040000fa
:04007c00ec03000091
:020000040000fa
:04008000ec0300008d
:020000040000fa
:04008400ec03000089
:020000040000fa
:04008800ec03000085
:020000040000fa
:04008c00ec03000081
:020000040000fa
:04009000ec0300007d
:020000040000fa
:040094001c03000049
:020000040000fa
:04009800ec03000075
:020000040000fa
:04009c00ec03000071
:020000040000fa
:0400a000ec0300006d
:020000040000fa
:0400a400ec03000069
:020000040000fa
:0400a800ec03000065
:020000040000fa
:0400ac00ec03000061
:020000040000fa
:0400b000ec0300005d
:020000040000fa
:0400b400ec03000059
:020000040000fa
:0400b800ec03000055
:020000040000fa
:0400bc00ec03000051
:020000040000fa
:0400c000ec0300004d
:020000040000fa
:0400c400ec03000049
:020000040000fa
:0400c800ec03000045
:020000040000fa
:0400cc00ec03000041
:020000040000fa
:0400d000ec0300003d
:020000040000fa
:0400d400ec03000039
:020000040000fa
:0400d800ec03000035
:020000040000fa
:0400dc00ec03000031
:020000040000fa
:0400e000ec0300002d
:020000040000fa
:0400e400ec03000029
:020000040000fa
:0400e800ec03000025
:020000040000fa
:0400ec00ec03000021
:020000040000fa
:0400f000ec0300001d
:020000040000fa
:0400f400ec03000019
:020000040000fa
:0400f800ec03000015
:020000040000fa
:0400fc00ec03000011
:020000040000fa
:04010000ec0300000c
:020000040000fa
:04010400ec03000008
:020000040000fa
:04010800ec03000004
:020000040000fa
:04010c00ec03000000
:020000040000fa
:04011000ec030000fc
:020000040000fa
:04011400ec030000f8
:020000040000fa
:04011800ec030000f4
:020000040000fa
:04011c00ec030000f0
:020000040000fa
:04012000ec030000ec
:020000040000fa
:04012400ec030000e8
:020000040000fa
:04012800ec030000e4
:020000040000fa
:04012c00ec030000e0
:020000040000fa
:04013000ec030000dc
:020000040000fa
:04013400ec030000d8
:020000040000fa
:04013800ec030000d4
:020000040000fa
:04013c00ec030000d0
:020000040000fa
:04014000ec030000cc
:020000040000fa
:04014400ec030000c8
:020000040000fa
:04014800ec030000c4
:020000040000fa
:04014c00ec030000c0
:020000040000fa
:04015000ec030000bc
:020000040000fa
:04015400ec030000b8
:020000040000fa
:04015800ec030000b4
:020000040000fa
:04015c00ec030000b0
:020000040000fa
:04016000ec030000ac
:020000040000fa
:04016400ec030000a8
:020000040000fa
:04016800ec030000a4
:020000040000fa
:04016c00ec030000a0
:020000040000fa
:04017000ec0300009c
:020000040000fa
:04017400ec03000098
:020000040000fa
:04017800ec03000094
:020000040000fa
:04017c00ec03000090
:020000040000fa
:04018000ec0300008c
:020000040000fa
:04018400ec03000088
:020000040000fa
:04018800ec03000084
:020000040000fa
:04018c00ec03000080
:020000040000fa
:04019000ec0300007c
:020000040000fa
:04019400ec03000078
:020000040000fa
:04019800ec03000074
:020000040000fa
:04019c00ec03000070
:020000040000fa
:0401a000ec0300006c
:020000040000fa
:0401a400ec03000068
:020000040000fa
:0401a800ec03000064
:020000040000fa
:0401ac00ec03000060
:020000040000fa
:0401b000ec0300005c
:020000040000fa
:0401b400ec03000058
:020000040000fa
:0401b800ec03000054
:020000040000fa
:0401bc00ec03000050
:020000040000fa
:0401c000ec0300004c
:020000040000fa
:0401c400ec03000048
:020000040000fa
:0401c800ec03000044
:020000040000fa
:0401cc00ec03000040
:020000040000fa
:0401d000ec0300003c
:020000040000fa
:0401d400ec03000038
:020000040000fa
:0401d800ec03000034
:020000040000fa
:0401dc00ec03000030
:020000040000fa
:0401e000ec0300002c
:020000040000fa
:0401e400ec03000028
:020000040000fa
:0401e800ec03000024
:020000040000fa
:0401ec00ec03000020
:020000040000fa
:0401f000ec0300001c
:020000040000fa
:0401f400ec03000018
:020000040000fa
:0401f800ec03000014
:020000040000fa
:0401fc00ec03000010
:020000040000fa
:04020000ec0300000b
:020000040000fa
:04020400ec03000007
:020000040000fa
:04020800ec03000003
:020000040000fa
:04020c00ec030000ff
:020000040000fa
:04021000ec030000fb
:020000040000fa
:04021400ec030000f7
:020000040000fa
:04021800ec030000f3
:020000040000fa
:04021c00ec030000ef
:020000040000fa
:04022000ec030000eb
:020000040000fa
:04022400ec030000e7
:020000040000fa
:04022800ec030000e3
:020000040000fa
:04022c00ec030000df
:020000040000fa
:04023000ec030000db
:020000040000fa
:04023400ec030000d7
:020000040000fa
:04023800ec030000d3
:020000040000fa
:04023c00ec030000cf
:020000040000fa
:04024000ec030000cb
:020000040000fa
:04024400ec030000c7
:020000040000fa
:04024800ec030000c3
:020000040000fa
:04024c00ec030000bf
:020000040000fa
:04025000ec030000bb
:020000040000fa
:04025400ec030000b7
:020000040000fa
:04025800ec030000b3
:020000040000fa
:04025c00ec030000af
:020000040000fa
:04026000ec030000ab
:020000040000fa
:04026400ec030000a7
:020000040000fa
:100400002f1621000eff27000e01880000000000bb
:10041000000020000000e000020032000001200087
:100420002002880014000700fb0007000000e00025
:1004300003003a0000df2100010020000200370025
:100440000000200001002000810f70000100320038
:100450000f000700000020000000e0000200320052
:100460000000020000000000560c02000000000026
:100470000040da000000fe00200020000000e00044
:1004800002003200100020009001880000000600e9
:10049000a1028800800478000000eb001f003700f4
:1004a000e284440054a0b4009905ba00e2844400f8
:1004b00054a0b4009906ba00e284440054a0b400e9
:1004c0000006eb00476fde00fd07b200ae018800ba
:1004d000636ce10003003a000ad801000000eb0061
:1004e0000e003700606ce10008003a00004deb00a0
:1004f0000a05e800020039003420ec000af0a000f0
:100500008b05e900f9ff3e00040037006168e10057
:10051000010032000086eb000b00070019c7ba008b
:100520000e04e0001905ba0003003a000a00e000da
:10053000dbff3a0000000600fe07b200ae028800b2
:100540008a047800f5ff37000cd0a300e20f4d00bd
:100550001c003b0089027800354dba000a05e8000e
:10056000020039003420ec000af0a0008b05e900fd
:100570000f003200254dba000a05e80002003900dc
:100580003420ec000af0a0008b05e90008003200de
:100590000c00e0000600320015cdba000a05e800a4
:1005a000020039003420ec000af0a0008b05e900bd
:1005b0008984e80054a0b4000b00e000e2ff3a0098
:1005c000000006009902ba00055d78008b05e9007d
:1005d000f7ff3200c82ade00055d78008b05e900d0
:1005e000f3ff32000c00e000f1ff320019ddba0029
:1005f000eeff37003600f800809fbe00829fbe00ed
:10060000849fbe00869fbe000000fa000068a9001b
:10061000ce070700a30c0700000000000080fa00ce
:100620004f03be004f02be004f01be004f00be0090
:100630003600f900004006003600f800809fbe003a
:10064000829fbe00849fbe00869fbe000000fa000d
:100650000368a900e6050700a0808000b180800043
:1006600061004000e0804800a0808800b1808800e0
:10067000000000000080fa004f03be004f02be00e1
:100680004f01be004f00be003600f90000400600da
:100690000000fa000108a900000000000080fa0034
:1006a00000400600801f78000000fa0001a8a900a1
:1006b00000188000708a880010188000808a8800e6
:1006c00020188000908a880030188000a08a880056
:1006d00040188000b08a880010c0b30025f0b70031
:1006e000000000000080fa004f0078000040060083
:1006f0003600f800809fbe00829fbe00849fbe002f
:10070000869fbe000000fa000188a900e1808000f9
:10071000d0808000808f500002003200aa0b0700ba
:10072000010037001e70ef00000000000080fa009a
:100730004f03be004f02be004f01be004f00be007f
:100740003600f900004006003600f800809fbe0029
:10075000829fbe00849fbe00869fbe000000fa00fc
:100760000168a900101180004200de0061406000b5
:10077000e14f500001003a002242a9001011800010
:100780000000d10061406000e14f500005003a00d8
:100790002222a900030037003011800000407800b9
:1007a000b30b07001011800000407800614060002a
:1007b000e14f5000f8ff3200000000000080fa0016
:1007c0004f03be004f02be004f01be004f00be00ef
:1007d0003600f900004006000040da000000fe008c
:1007e000f03fb1000180b10006003500ee030900c2
:1007f00000000000403fb1000180b100fbff3d0060
:100800001000b000203fb000020035000080090059
:100810000000000000000600000005001400200099
:10082000aa033700f4ff2f00a80337000001be0021
:100830003c0007000470a70003f0a1006509b100a7
:10084000160032000d0035006828e1000600350072
:10085000f0ff2f00f1ff27000300e00013003b0032
:1008600001002800000005000000400081804800d1
:100870008502e900fcff3a0008003700f88f4200cb
:1008800002003c008000eb00000005008100d10068
:100890000080d3008502e800fcff3a000300e0007e
:1008a00002003b0060001000e0801800000006001d
:1008b0000001be001b0007000470a70003f0a100a8
:1008c00003f8a30013003a006509b10010003200dc
:1008d000090035006928e100020035000100280008
:1008e0000000050000004000818048008502e9000a
:1008f000fcff3a0000000600f88f420005003500ba
:100900008100d1000080d3008502e800fcff3a009e
:10091000000006008000eb00000005006011b80038
:1009200085033700c70ade00f107b200f50fb200f9
:1009300008003200e1cf4200020032000170a00046
:1009400024000500810f700001003200040805003a
:1009500044000500810f700002003a0014000500f9
:100960008502e9000000400081c04800fcff3b0018
:100970000170a0002400050007f82700078361002c
:100980000638e10004003a00f70720008783610081
:100990008703710001003a0003f0a200889fbe00a7
:1009a0008a9fbe008c9fbe00470ade000480a10023
:1009b000c71ade000580a100070028000785600037
:1009c00087856100f70f20000720e1009e003200bc
:1009d0000728e1009c003200010678000400e000d6
:1009e000b4003200f7072000878060000170a0008b
:1009f0000500e000c0003200f70720008781610099
:100a00000370a000050652000f003a000b50e100f1
:100a10000b0032000308e10002003a000200e1008e
:100a20007e0032000204500083845800040031002c
:100a30000001fd008101fd008402fd008a05fd002a
:100a40006044b800210037000520e10005003d00aa
:100a50000001fd008101fd008402fd008a05fd000a
:100a6000050652007a60e100050035000170a10022
:100a70004722dd00848070008a80700063003700a8
:100a80006044b800ef02660007ff2f00070666000b
:100a90000500e00006003400f08312008714dd003a
:100aa0000511de00071bdd00060171008519de005f
:100ab0007060e100050035000904780082047800c8
:100ac000030178008001eb00700656000b50e10036
:100ad00003003a0002004000838048000400370011
:100ae00060041400e0841c00020058008380580059
:100af0000188a300060032008100d1000080d300ed
:100b00008984d3000884d3000402e800270037005a
:100b10000178a30025003a000100e0000300320044
:100b20008186cf00698656000a0037008c002000bd
:100b30000000e00004003a00090078008804780012
:100b40000004eb00700252008086cf000d064600c4
:100b50000c06e9007060e1000600350080007800b6
:100b600009007800880478000004eb007006560045
:100b7000700252000c00e0000c0034008c08dd0014
:100b8000f00316000703de00868070000c00dd0015
:100b9000074bde00060070008c4cdd000743de00d2
:100ba000868474000c44dd000c0252006120e100d8
:100bb0002000350061016000070028008781640083
:100bc000f7ff270087836400070374000300e00039
:100bd0000600320082037300040032000000e800c7
:100be000e08048000188a3000e003a00f70f2000c3
:100bf0000720e1004a003d000170a1004722dd000e
:100c0000810072008a8070000000be004f06be00a6
:100c10004f05be004f04be00000006006000b80093
:100c2000faff37008100d1000080d3000402e80001
:100c3000eeff37000401780089017400a10107006c
:100c40008a807000f1ff3700f70107000702780083
:100c50000001fd008101fd00f3010700870278001b
:100c6000850372000778a300040032000001fd0034
:100c70008101fd0006020700e4ff370085036200e2
:100c80000768a300080032000b50e10003003200a7
:100c9000f0ff2f00f1ff2700dcff37000001fd000f
:100ca0008101fd00d9ff37000468a300d7ff32009f
:100cb000faff3700f8ff2700888360000b003a0036
:100cc0000000e00009003a0083036400828373009f
:100cd000020032000200be00ccff37000b50e100e2
:100ce000ceff3a000200be00c8ff3700140020000b
:100cf000810064003eff3700f8ff27008883610011
:100d000004003a000200e00002003a008c00780083
:100d1000beff3700150020008301640039ff370053
:100d200001f827000000200081007500b7ff3700a0
:100d3000889fbe008a9fbe008c9fbe001b002000c3
:100d40000202be000586680006002800060666004e
:100d50004709de00f20fb200820032000243e800d1
:100d600080003200c729de00f30fb2007d003200a0
:100d70000343e8007b003200f107b2000170a000dd
:100d8000f507b2000570a000c708dd004903de00ca
:100d9000868070004700dd00c72add004923de00a1
:100da000868272004722dd000305510004035000d3
:100db0008583580003003100000040008180480016
:100dc0000a05e9008c1f78008a9fbe0004005000cd
:100dd000858058000402420085824a0000004000dd
:100de000818048000005eb000004be006033b800bd
:100df0000406be000d48e100560031001100090054
:100e00004dccd8000c01b8000d02b800848141001f
:100e100060824a008283530003045c0084845c0087
:100e200060055d000a00e00025003a0080057800ba
:100e30000d40e1004900310088007800070078008b
:100e4000110009004d88d8000c01b8000d02b8004f
:100e50008481410060824a006003110083835b004b
:100e600004045c00e0845c000900e00021003a001a
:100e70004f01be000300e0002b003200e3016000e0
:100e8000070673008c81710001003200640070005d
:100e90004200de004e5edd000c007000c258de0035
:100ea00001e0a00083010700cf017800818071007c
:100eb0004f06be004f05be004f04be0000000600f6
:100ec0008c8343000d044c00e0844c0060054d0011
:100ed0000000e9000a00e000d4ff32008c834300e8
:100ee0000d044c00e0844c0060054d000000e9005a
:100ef000ceff37000c0343008d834b0060044c0091
:100f0000e0844c000000e9000900e000d8ff320056
:100f10000c0343008d834b0060044c00e0844c00c4
:100f20000000e900d2ff37004200de004e5edd0027
:100f30000c007000c258de0001e0a000cf01780074
:100f40000300e000daff320060001000e0801800cb
:100f5000d7ff3700f0ff2f00aaff3700f0ff2f0068
:100f6000b9ff37000404be002f0107008706780090
:100f70000004fd008104fd002b01070007836600cb
:100f80000678a300030032000960a7000800be0035
:100f90002c0037000d78a300020032000800be00cc
:100fa000280037000778a30026003a0001f0a100ce
:100fb00009f0a1000668a30003003200f1ff27003a
:100fc000f0ff2f00baff37000d68a30003003200c6
:100fd0000800be008c807000b5ff37000768a300d2
:100fe00007003a000648a30003003200f1ff270083
:100ff000f0ff2f00aeff37000d48a30003003200c2
:101000006000b8008c807000a9ff37000748a3007b
:101010000400320001f82700000020008c807000de
:10102000a3ff3700760107000004fd008104fd00e6
:1010300002057800720107000802be008a017800ec
:1010400059ff37000160a0001202200032818800a1
:1010500097ff37000100e000120032000500e000b9
:1010600010003200889fbe008a9fbe008c9fbe0089
:101070000006eb0001f8a30003003200600010003e
:10108000e08018000cf0a00005f8a3000300320077
:1010900060021200e0821a000cf0a2008005eb0052
:1010a00041ff37006000b8000200050003836800bc
:1010b0000700280007036300470ade000480a10040
:1010c000c71ade000580a100f70f20000720e1000d
:1010d000420032000728e10040003200889fbe0035
:1010e0008a9fbe008c1f7800f107b200f307b200a0
:1010f0000400e000640032000170a0000500e00080
:10110000680032000370a00085054200eb07b100c3
:101110000204b8000302b8008484440060854a00d9
:10112000020ab800848444000a854a00030ab80011
:1011300004054500040033000804d0008984d2006f
:101140000a85d2008b05e9006158e1003d003500b9
:10115000021020000901610003082000898161005c
:10116000f70720008783640008867300c84cde0000
:10117000c853dd00878474004855de000300e0009a
:101180000600320082037600040032008904e80081
:1011900060054d000a88a3000c003a00f70f2000fc
:1011a0000758e10044003d000a70a100c75ddd0062
:1011b0000a8575008a007300090078004f067800e0
:1011c0004f05be004f04be00000006000a05d10016
:1011d0008984d3008b05e800f0ff3700881f780072
:1011e0000604780090000700070278000001fd0067
:1011f0008101fd008c0007008702780085037200e2
:101200000778a300050032000001fd008101fd0008
:101210009f0007004f04780000000600850372005d
:101220000748a30003003200f0ff2f00f1ff270062
:10123000f8ff37000000200001f8270088807000c8
:10124000f4ff3700880178004848dd008081710094
:101250004848de00c850dd0001007000c850de00c4
:10126000060478000b0178001600070088807000e3
:10127000d2ff37000500e000050032001700200013
:101280003a0007009dff370081037000f9ff3a0024
:10129000860078004f0678004f05be004f04be0060
:1012a0000000050083037100f9ff320027002000d1
:1012b0002e00070094ff370001f827008680700099
:1012c000f4ff37000100e000260032006101110048
:1012d0007810e10023003c006022b8007010e100ab
:1012e0000400350080027800010078008000eb00e7
:1012f000700151000200e000090034007003110089
:10130000062add00822ade008603dd008782720065
:101310000200de00860bdd00070070008208de00a0
:1013200084817100f4ff27000482620084817100cf
:1013300004002800848262006102600005f0a600bb
:101340000000060004827100070032000000e8007f
:10135000e0804800000006000002be006000b80007
:10136000efff37006000b80000000600889fbe0055
:101370000004eb006138e10016003a000100e000d3
:1013800008003a00c800de004800dd0088002000a8
:101390000100e00003003a00c800de004800dd0064
:1013a000680444008184cf00e984540006003400be
:1013b0008908dd00f08314008703de008780700059
:1013c0000900dd0009044400610214004f04be005e
:1013d000000006000300e00008003a00c811de002b
:1013e0004811dd00880020000300e00003003a00ff
:1013f000c811de004811dd00680444008384cf007a
:10140000e9845400060034008919dd00f0831400db
:101410008713de00878171000911dd000904440093
:10142000e1021400e9ff37002700200001f0a700c7
:1014300017002000470bde00f60fb2000400320058
:101440000643e8000a0032004702b300000006002d
:1014500001037800f607b2000603700002003a00ac
:101460000703b300000006008702b3000000060077
:1014700001037800f607b200060370000200320094
:101480000770a000000006000760a0000000060032
:101490000478a300040032000578a30003003200a2
:1014a0000168a30001003a000200be000160a00034
:1014b0000000060081017000270032008002eb006e
:1014c00001f8a3000300320060001000e080180063
:1014d00015002000f4072000020242002000340022
:1014e000f703200087036000060420000003630068
:1014f00002082000000161004700de00c909dd008c
:1015000000807100c708de000600e000080032001d
:1015100087037100060032001000b0000180b000a7
:101520000188a30002003200c108de000402e800c6
:10153000f107b200f30f20000320e10003003d009b
:101540004722dd00810072002900370001f82700e2
:101550000000eb00260037006000b8000000060025
:10156000680212007f20e100020034006000b80031
:101570001f0037006011b8007020e1000400350042
:1015800080017800010078008000eb0070025200ba
:101590000400e00009003400f00312000719dd0028
:1015a0008419de000703dd00868171000400de007f
:1015b000070bdd00060070008408de00f7ff27003f
:1015c0008383630087037100060028000303630020
:1015d000070032000700e00003003a0061016000ec
:1015e00002817300020032001000b0000180b000e0
:1015f0000500a6000000060001f0a00000000600a3
:101600004f0ade004709de00f107b200f20fb20018
:101610000b003200f207b1000170a000c708dd0026
:10162000c901de00838070004700dd000400a600d1
:101630000000060060001000e080180000000600b6
:10164000810f700001003a00000006008182cf0087
:101650000500e00010003e008082cf00ee824200d4
:101660007028e1000400390007003e008000780087
:101670000000eb000e003700708312008600de00d1
:101680000500dd000a003700708352008600dd008f
:101690000000eb0006003700e28252008508dd0002
:1016a000708312000603de00868070000500dd00f6
:1016b0007507b0000501ea000400a600000006005e
:1016c00060001000e080180000000600889fbe0047
:1016d0008a9fbe00841f78006c0007004f007800ce
:1016e00011003300f0ff2f00838f6c0006003b00d9
:1016f000040565000a00a7000800370009f0a600ed
:101700001000200008003700820f5400838f5c0017
:10171000030039001000200001003e0000002000fe
:1017200009f0a7000000ea004f05be004f04be000c
:101730000000e00000000600889fbe008a9fbe00f7
:1017400000827000040271000482710026003200e1
:101750000004be000200be006011b8006b0920004a
:10176000950220000182cf000a0039000541b10036
:101770000082cf00070039000541b1000982cf0087
:10178000040039000541b1000882cf000100390092
:101790000541b10005425200120032000a003b0030
:1017a00082817100610164008100d1000080d3005a
:1017b0008984d3000884d3008b05e8000442e80044
:1017c000f7ff3a00070037000804440089844c0002
:1017d00000004800818048008b05e9000442e900d0
:1017e000f9ff3a00030007004f05be004f04be009a
:1017f0000000060081002000618055000b003d00c4
:101800000b00200061fe2f000100e1001d003400ec
:1018100082817100610164008904d1000884d300d1
:101820000000e800faff3a00710020006100640047
:1018300003007000020060000900320061044400ef
:10184000e0844c000988a500050032008b05e80003
:101850006808e10002003a008904d1000884d3003e
:10186000f20f20000258e10005003d00c75ddd00d9
:10187000f907b200898075000800780000000600b2
:101880000bf827008b007800000005000004be0064
:1018900024fc07000003be000405be000200be00d9
:0c18a00020fc0700844f750000000600cb
:020000040000fa
:1018ac000a00fa00881f78000d080700930807004b
:1018bc003f0407004a040700550407006c020700a8
:1018cc00b807070054080700040ea800052ea8004e
:1018dc0095eea800054ea800746ea800f707070047
:1018ec00e14f5000d7003a00f8070700ef07070058
:1018fc00100798000e80e8001080e80010007800b7
:10190c008000eb0002fc0700323323003305240077
:10191c00e3fd0700000178000100780082027800e6
:10192c000002780002002000035824000500780013
:10193c00840078000000be00fafc07002007980025
:10194c00310798002e019000be019000000020008d
:10195c0081202400f3fc07000001780001007800ce
:10196c00820278000002780002002000030a2400a2
:10197c0005007800840078000000be00fbfb070027
:10198c008001780001017800030078008200780063
:10199c000000be00108a8800218a88000e80e800b2
:1019ac004100200010804000100078008000eb0007
:1019bc00d7fb07003233230033052400b8fd0700a2
:1019cc0000017800010078008202780000027800a3
:1019dc0002002000035824000500780084007800e1
:1019ec000000be00cffc07002007980031079800cc
:1019fc002e019000be0190000000200081202400e8
:101a0c00c8fc070000017800010078008202780011
:101a1c000002780002002000030a24000500780070
:101a2c00840078000000be00d0fb07008001780025
:101a3c000101780003007800820078000000be00ed
:101a4c00f0898800018a88000e80e800610020007f
:101a5c0010804000100078008000eb00acfb070009
:101a6c0032332300330524008dfd0700000178007c
:101a7c000100780082027800000278000200200049
:101a8c000358240005007800840078000000be0094
:101a9c00a4fc070020079800310798002e01900045
:101aac00be01900000002000812024009dfc070056
:101abc0000017800010078008202780000027800b2
:101acc0002002000030a240005007800840078003e
:101adc000000be00a5fb0700800178000101780022
:101aec0003007800820078000000be00d0898800d6
:101afc00e18988000e80e800810020001080400001
:101b0c00100078008000eb0081fb070032332300cb
:101b1c003305240062fd0700000178000100780005
:101b2c008202780000027800020020000358240092
:101b3c0005007800840078000000be0079fc0700e6
:101b4c0020079800310798002e019000be019000ec
:101b5c00000020008120240072fc070000017800a6
:101b6c000100780082027800000278000200200058
:101b7c00030a240005007800840078000000be00f1
:101b8c007afb0700800178000101780003007800df
:101b9c00820078000000be00308a8800418a8800ec
:101bac001e009000100078008000eb0058fb07002e
:101bbc00323323003305240039fd0700000178007f
:101bcc0001007800820278000002780002002000f8
:101bdc000358240005007800840078000000be0043
:101bec0050fc070020079800310798002e01900048
:101bfc00be019000000020008120240049fc070059
:101c0c000001780001007800820278000002780060
:101c1c0002002000030a24000500780084007800ec
:101c2c000000be0051fb0700800178000101780024
:101c3c0003007800820078000000be00508a880003
:101c4c00618a8800a2152100710020000008200084
:101c5c00c605070000a0250021262000ddfa07009c
:101c6c000000eb00000f7800060037009406070018
:101c7c00004f98006800470011002000090607007b
:101c8c001e0fe800ab0607009e007800808f500006
:101c9c00f6ff3500a000200001002000cdfa07005f
:101cac00108a8000218a800018c0b3000200200036
:101cbc00031f2400d6fa07000000e00001003500e5
:101ccc000044eb000880fb00610060004500dd0073
:101cdc00217480000150a100010070002074880064
:101cec00f0898000018a800018c0b3000200200037
:101cfc00831c2400c6fa07000000e0000100350038
:101d0c000044eb000880fb00610060004400dd0033
:101d1c00217480000140a100010070002074880033
:101d2c00d0898000e189800018c0b3000200200037
:101d3c00031f2400b6fa07000000e0000100350084
:101d4c000044eb000880fb00610060004b00dd00ec
:101d5c002174800001b0a100010070002074880083
:101d6c00308a8000418a800018c0b3000200200035
:101d7c00031f2400a6fa07000000e0000100350054
:101d8c000044eb000880fb00610060004a00dd00ad
:101d9c00a173800001a0a10001007000a073880055
:101dac00508a8000618a800018c0b30002002000b5
:101dbc00031f240096fa07000000e0000100350024
:101dcc000044eb000880fb00610060004600dd0071
:101ddc00217480000160a100010070002074880053
:101dec00befe37000000fa000ad0bf000080fb00e6
:101dfc006100b9002201200003002000820f500076
:101e0c00838f580090003e0000060100120037003e
:101e1c001d003700260037003d0037003e0037001c
:101e2c005300370054003700690037006a00370050
:101e3c0075003700760037008100370082003700cc
:101e4c0081003700800037007f0037003d003700ed
:101e5c0054003700220037001430ef001630ef002a
:101e6c006011b8006000b800b30207000200200047
:101e7c0003f823006000b800af02070010c0b300e5
:101e8c000af0b70073003700a2808000b380800096
:101e9c00803e200001002000800f5100818f5900ee
:101eac006b00360020c0b3000af0b70068003700a2
:101ebc006011b80000002000011f24009e020700e2
:101ecc000200200003f8230000002000011f240062
:101edc009902070030c0b3000af0b7005d0037006c
:101eec006011b800000020000112240092020700cb
:101efc000200200003f8230000002000011224003f
:101f0c008d02070020c0b3000af0b7005100370063
:101f1c00530007004f0037006011b800000020008c
:101f2c0001172400840207000200200003f823009c
:101f3c006000b8008002070050c0b3000af0b70080
:101f4c00440037006011b80000002000011224008a
:101f5c00790207000200200003f823006000b8009b
:101f6c007502070050c0b3000af0b7003900370003
:101f7c003b000700370037006011b8006000b80064
:101f8c006d0207000200200003f82300000020006f
:101f9c00011724006802070070c0b3000af0b700f4
:101fac002c0037006011b8006000b8006202070016
:101fbc000200200003f8230000002000011224007e
:101fcc005d02070070c0b3000af0b70021003700b3
:101fdc00230007001f0037006011b800000020002c
:101fec0001172400540207000200200003f823000c
:101ffc000000200001172c004f02070090c0b30016
:10200c000af0b70013003700150007001100370065
:10201c006011b8000000200001172c0046020700d8
:10202c000200200003f82300000020000117240008
:10203c0041020700b0c0b3000af0b700050037003a
:10204c0007000700030037000a70ef00010037009b
:10205c0000000000000000000080fa0000000600f4
:10206c000200fa000040eb00004f7800d08980009d
:10207c00e18980000200200043232400e4f90700da
:10208c000000e00011003d00f0898000018a800012
:10209c000200200003222400dff907000000e0000a
:1020ac000a003400108a8000218a8000020020007f
:1020bc0043232400d8f907000000e000030034009b
:1020cc0020c0b300004f780039003700d089800061
:1020dc00e18980000200200043232400cef9070090
:1020ec000000e00011003400f0898000018a8000bb
:1020fc000200200003222400c7f907000000e000c2
:10210c000a003400108a8000218a8000020020001e
:10211c0043232400bef907000000e00003003d004b
:10212c0010c0b300004f780021003700f089800008
:10213c00018a800002002000c3202400b4f90700ab
:10214c000000e00003003d0030c0b300004f7800f9
:10215c0017003700548a8000658a8000308a80001e
:10216c00418a80000001be000400be00a8f90700ef
:10217c000000e00003003d0040c0b300004f7800b9
:10218c000b003700348a8000458a8000508a80001a
:10219c00618a80000001be000400be009cf90700ab
:1021ac000000e00002003d0050c0b300004f78007a
:1021bc001e4078000004e00003003a0020c0b30089
:1021cc000bf0b7001d0037001e407800e24f5000a6
:1021dc0003003a0040c0b3000bf0b7001700370003
:1021ec001e407800e14f500003003a0060c0b3007d
:1021fc000bf0b700110037001e407800e34f500081
:10220c0003003a0080c0b3000bf0b7000b0037009e
:10221c001e407800e44f500003003a0010c1b30098
:10222c000bf0b700050037001e407800e54f50005a
:10223c0002003a0000c1b3000bf0b7000bd0bf0096
:10224c000080fb00a1002100914078008180fb0000
:10225c008100e900810f5000020032000bd0bf005a
:10226c000af0b700000000000080fa000000060031
:10227c000000fa0002ccbf000000a1000010a10079
:10228c000020a10002ecb70000962000206088001e
:10229c001061800000a0a00000b0a00010618800b8
:1022ac0023cca80023eca80030002000206188007b
:1022bc001062800000a0a00000b0a0001062880096
:1022cc0043cca80043eca80030002000206288001a
:1022dc0001eca800000000000080fa0000000600dd
:1022ec000800fa00008fbe00220798003307980000
:1022fc000200200003f823002e009000be00900086
:10230c0043f907000000e00041003d0002002000fe
:10231c00031c24001e0078009e00900060fb070048
:10232c000001780001007800820278000002780039
:10233c0060808000718080000001be000500780084
:10234c00840078000000be0091f9070000017800bd
:10235c000100780082017800000178000300780009
:10236c00820078000000be004ef907003061880042
:10237c0060808000718080004af9070070618800dd
:10238c006011b8001e0078009e00900020f9070034
:10239c000000e0001e003d00608080007180800025
:1023ac0040f90700306188001e0078009e00900004
:1023bc0001f0a20002002000031c240038fb0700df
:1023cc000001780001007800820278000002780099
:1023dc0060808000718080000001be0005007800e4
:1023ec00840078000000be0069f907000001780045
:1023fc000100780082017800000178000300780069
:10240c00820078000000be0026f907007061880089
:10241c006011b8002e009000be009000fef807007e
:10242c000000e00001003c004200370060808000aa
:10243c00718080001bf907003062880002002000c8
:10244c00031c24001e0078009e00900014fb070063
:10245c000001780001007800820278000002780008
:10246c0060808000718080000001be000500780053
:10247c00840078000000be0045f9070000017800d8
:10248c0001007800820178000001780003007800d8
:10249c00820078000000be0002f90700706288001c
:1024ac006011b8001e0078009e009000d8f807005c
:1024bc000000e000010035001e0037001e0078000f
:1024cc009e00900001f0a20002002000031c2400da
:1024dc00f3fa07000001780001007800820278000e
:1024ec000002780060808000718080000001be00d6
:1024fc0005007800840078000000be0024f9070075
:10250c000001780001007800820178000001780059
:10251c0003007800820078000000be00e1f807009c
:10252c00306288006080800071808000ddf80700d8
:10253c0070628800000000000080fa0000000600b5
:10254c000000fa00889fbe00748980008589800095
:10255c0050898000618980000001be000400be002b
:10256c00abf807000000e00014003d005889800023
:10257c006989800074898000858980008080800052
:10258c00918080000001be000400be0000f907002d
:10259c0000017800010078008202780000027800c7
:1025ac000801be0005007800840078000000be0021
:1025bc00c7020700708988008189880074898000af
:1025cc008589800050898000618980000001be00ef
:1025dc000400be0090f807000000e0001400340076
:1025ec005889800069898000748980008589800001
:1025fc0080808000918080000001be000400be003d
:10260c00daf80700000178000100780082027800f7
:10261c00000278000801be000500780084007800f4
:10262c000000be0093020700708988008189880031
:10263c0070898000818980006011b80076f80700ed
:10264c000000e0001e003400708980008189800049
:10265c0002002000031c240091fa070000017800fe
:10266c00010078008202780000027800608080000f
:10267c00718080000001be000500780084007800a5
:10268c000000be00c2f807000001780001007800cd
:10269c008201780000017800030078008200780045
:1026ac000000be007ff80700306188006080800069
:1026bc00718080007bf80700706188001e00370075
:1026cc00608080007180800076f80700306188009f
:1026dc00708980008189800001f0a2000200200036
:1026ec00031c24006efa070000017800010078003a
:1026fc008202780000027800608080007180800087
:10270c000001be0005007800840078000000be00c7
:10271c009ff8070000017800010078008201780022
:10272c000001780003007800820078000000be00f1
:10273c005cf8070070618800b4898000c58980004e
:10274c0090898000a18980000001be000400be00b9
:10275c002ff807000000e00014003d00988980006d
:10276c00a9898000b4898000c589800080808000a0
:10277c00918080000001be000400be0084f80700b8
:10278c0000017800010078008202780000027800d5
:10279c000801be0005007800840078000000be002f
:1027ac004b020700b0898800c1898800b489800079
:1027bc00c589800090898000a18980000001be003d
:1027cc000400be0014f807000000e0001400340000
:1027dc0098898000a9898000b4898000c58980000f
:1027ec0080808000918080000001be000400be004b
:1027fc005ef8070000017800010078008202780082
:10280c00000278000801be00050078008400780002
:10281c000000be0017020700b0898800c18988003b
:10282c00b0898000c18980006011b800faf70700f8
:10283c000000e0001e003500b0898000c1898000d6
:10284c0002002000031c240015fa07000001780088
:10285c00010078008202780000027800608080001d
:10286c00718080000001be000500780084007800b3
:10287c000000be0046f80700000178000100780057
:10288c008201780000017800030078008200780053
:10289c000000be0003f807003062880060808000f2
:1028ac0071808000fff70700706288001e003700ff
:1028bc006080800071808000faf707003062880029
:1028cc00b0898000c189800001f0a20002002000c4
:1028dc00031c2400f2f907000001780001007800c5
:1028ec008202780000027800608080007180800095
:1028fc000001be0005007800840078000000be00d6
:10290c0023f80700000178000100780082017800ac
:10291c000001780003007800820078000000be00ff
:10292c00e0f7070070628800000000004f04be0052
:10293c000080fa00000006000800fa00008fbe00bc
:10294c0022079800330798006011b8002e00900001
:10295c00be009000aef707000000e00005003a0052
:10296c001e0078009e00900001f0a2009089880063
:10297c00a18988000200200003f823002e0090009b
:10298c00be009000a2f707000000e000010032003a
:10299c00040037001e0178009e01900052898800c7
:1029ac0063898800000000000080fa000000060027
:1029bc000000fa0000002000a13f24002e000700b8
:1029cc0005e1a9000421a9000068a9002068a8005d
:1029dc0005e1a800000000000080fa0000000600dd
:1029ec000000fa0000002000a1472400d7000700d7
:1029fc001fe1a9001e21a9000368a9002368a800f3
:102a0c001fe1a800000000000080fa000000060092
:102a1c000000fa0013e1a90011e1a9001061a8005f
:102a2c001021a900800880000040a0000050a000e8
:102a3c00800888000a21ef000621ef0070002000ba
:102a4c0070088800e0702200600888002042800036
:102a5c000000a0000010a1000020a100204288006e
:102a6c000108a9002108a80011e1a800000000003d
:102a7c000080fa00000006000400fa00008fbe007f
:102a8c00200880000040a1000050a1002008880010
:102a9c001e0178009e019000001c2e0041c62400ef
:102aac00a0f807000001780001007800820278008d
:102abc000002780002f02f00f37724000500780064
:102acc00840078000000be0053f707000000e0000f
:102adc008d003400200880000040a0000050a100b0
:102aec00200888001e0178009e019000001c2e001a
:102afc0041c624008bf80700000178000100780023
:102b0c0082027800000278000200200003102400ea
:102b1c0005007800840078000000be0081f80700f2
:102b2c000001780001007800820278000002780031
:102b3c0002f02f00f3772400050078008400780061
:102b4c000000be0034f707000000e0005500340020
:102b5c00200880000040a1000050a0002008880040
:102b6c001e0178009e019000001c2e0041c624001e
:102b7c006cf80700000178000100780082027800f0
:102b8c0000027800020020000328240005007800d1
:102b9c00840078000000be0062f807000001780095
:102bac0001007800820278000002780002f02f0009
:102bbc00f377240005007800840078000000be0044
:102bcc0015f707000000e0001d003400200880000d
:102bdc000040a0000050a000200888001e017800d2
:102bec009e019000001c2e0041c624004df80700e9
:102bfc000001780001007800820278000002780061
:102c0c0002002000033824000500780084007800be
:102c1c000000be0043f807000001780001007800b6
:102c2c0082017800000178000300780082007800af
:102c3c000000be00faf607001008880040003700bc
:102c4c001e0178009e019000001c2e0041c624003d
:102c5c0034f8070000017800010078008202780047
:102c6c0000027800020020000328240005007800f0
:102c7c00840078000000be002af8070000017800ec
:102c8c0001007800820178000001780003007800d0
:102c9c00820078000000be00e1f6070010088800f2
:102cac00270037001e0178009e019000001c2e00aa
:102cbc0041c624001bf807000001780001007800d1
:102ccc008202780000027800020020000310240029
:102cdc0005007800840078000000be0011f80700a1
:102cec000001780001007800820178000001780072
:102cfc0003007800820078000000be00c8f60700d0
:102d0c00100888000e0037001e0178009e0190000c
:102d1c00001c2e0041c6240002f8070000017800b8
:102d2c00010078008201780000017800030078002f
:102d3c00820078000000be00b9f607001008880079
:102d4c00000000000080fa00000006000400fa00f9
:102d5c00008fbe00f00880000040a1000050a100d0
:102d6c00f00888001e0178009e019000001c2e00c7
:102d7c0041c62400ebf70700000178000100780041
:102d8c00820278000002780002f02f00f377240012
:102d9c0005007800840078000000be009ef6070055
:102dac000000e0008d003400f00880000040a0001e
:102dbc000050a100f00888001e0178009e019000d0
:102dcc00001c2e0041c62400d6f707000001780035
:102ddc0001007800820278000002780002002000d6
:102dec000310240005007800840078000000be0069
:102dfc00ccf707000001780001007800820278000f
:102e0c000002780002f02f00f37724000500780010
:102e1c00840078000000be007ff607000000e00090
:102e2c0055003400f00880000040a1000050a000c4
:102e3c00f00888001e0178009e019000001c2e00f6
:102e4c0041c62400b7f707000001780001007800a4
:102e5c00820278000002780002002000032824007f
:102e6c0005007800840078000000be00adf7070074
:102e7c0000017800010078008202780000027800de
:102e8c0002f02f00f377240005007800840078000e
:102e9c000000be0060f607000000e0001d003400da
:102eac00f00880000040a0000050a000f00888004e
:102ebc001e0178009e019000001c2e0041c62400cb
:102ecc0098f7070000017800010078008202780072
:102edc00000278000200200003382400050078006e
:102eec00840078000000be008ef707000001780017
:102efc00010078008201780000017800030078005e
:102f0c00820078000000be0045f60700d00888005b
:102f1c00400037001e0178009e019000001c2e001e
:102f2c0041c624007ff707000001780001007800fb
:102f3c00820278000002780002002000032824009e
:102f4c0005007800840078000000be0075f70700cb
:102f5c0000017800010078008201780000017800ff
:102f6c0003007800820078000000be002cf60700f9
:102f7c00d0088800270037001e0178009e019000c1
:102f8c00001c2e0041c6240066f7070000017800e3
:102f9c000100780082027800000278000200200014
:102fac000310240005007800840078000000be00a7
:102fbc005cf70700000178000100780082017800be
:102fcc000001780003007800820078000000be0049
:102fdc0013f60700d00888000e0037001e01780099
:102fec009e019000001c2e0041c624004df70700e6
:102ffc00000178000100780082017800000178005f
:10300c0003007800820078000000be0004f6070080
:10301c00d0088800000000000080fa0000000600c4
:10302c000400fa00008fbe006011b8001e0078008a
:10303c009e009000f8f507000000e000030035004a
:10304c001e0078009e009000030037001e007800e0
:10305c009e00900001f0a200800178000101780030
:10306c0003007800820078000000be000080fa00a7
:10307c00000006000800fa00008fbe00220798002e
:10308c00330798002e019000be0190001e007800be
:10309c009e009000e0f507000000e0000300340003
:1030ac009e0078001e00900002003700ae009000d9
:1030bc003e00900081017800000178000300780048
:1030cc00820078000000be000080fa0000000600bc
:1030dc000800fa00008fbe00220798003307980002
:1030ec002e019000be0190001e0078009e00900002
:1030fc00c7f507000000e00003003d009e007800cb
:10310c001e00900002003700ae0090003e009000c0
:10311c0081017800000178000300780082007800bb
:10312c000000be000080fa00000006000c00fa004f
:10313c00008fbe00220798003307980044079800c0
:10314c00550798004e019000de0190001e0078009b
:10315c009e009000b0f507000000e0000400340071
:10316c004e019000de019000028fbe000a00370075
:10317c002e019000be0190001e0078009e00900071
:10318c00a3f507000000e00003003d002e019000b5
:10319c00be019000028fbe009e0078001e009000c1
:1031ac00810178000001780003007800820078002b
:1031bc000000be000080fa00000006000400fa00c7
:1031cc00008fbe00b2fd2000930424001e00780086
:1031dc009e009000d3f607000001780001007800f3
:1031ec0082027800000278000200200043332400a1
:1031fc0005007800840078000000be00a8f70700e6
:10320c0000017800010078008200780081017800cc
:10321c000001780003007800820078000000be00f6
:10322c000080fa00000006000400fa00008fbe00c7
:10323c00b2fd2000930424001e0078009e00900034
:10324c0097f70700000178000100780082027800ef
:10325c0000027800020020004333240005007800af
:10326c00840078000000be00aef607000001780074
:10327c00010078008200780081017800000178005c
:10328c0003007800820078000000be000080fa0085
:10329c00000006000a00fa00200798003107980089
:1032ac00420798000040eb00004f78009e407800e9
:1032bc00e0cfb30000c06800004f78002e009000f3
:1032cc004880de00004078009e40780000c0680016
:1032dc00004f78002e009000004078009e4078004f
:1032ec0000c06800004f78003e0090004880de006f
:1032fc00004078009e40780000c06800004f7800c5
:10330c003e009000004078009e40780000c06800ad
:10331c00004f78000000eb00100798000c003700fd
:10332c001e009000e800470011004000104078009b
:10333c009e40780000c06800004f78000e80e800c6
:10334c008e80e8001108e8009000780011079800c2
:10335c009e0090003e009000808f5000f0ff3500e2
:10336c001e4078000080fa00000006008c00fa0075
:10337c003087980041879800528798000000eb0036
:10338c00000f78009e007800010fe800500020002c
:10339c0000804000e1cfb300017778003e809000c0
:1033ac004880de009e007800010fe80000417800a4
:1033bc005000200000804000027778009e007800ca
:1033cc00010fe8003e809000004178005000200082
:1033dc0000804000027778004e8090004880de002c
:1033ec009e007800010fe80000417800500020009a
:1033fc0000804000027778009e007800010fe80002
:10340c004e80900000417800500020000080400069
:10341c00027778000000eb00100798000f003700cf
:10342c009e009000a00820000e004000108040007c
:10343c009e007800010fe800104178005000200039
:10344c0000804000027778000e80e8008e80e80053
:10345c001108e80090007800110798009e00900079
:10346c004e809000808f5000edff35005e81900003
:10347c00ce8090003e80900086ff07004047980069
:10348c009e007800010fe8005000200000804000f2
:10349c00ce40900001777800000000000080fa0018
:1034ac00000006000600fa0010079800210798009b
:1034bc000040eb00004f780061000700ae00900068
:1034cc00808f500013003d000040eb00004f78004f
:1034dc00080037001e80fb008e80e80011004000c1
:1034ec00104078000e0007001e4078000040e800f5
:1034fc00004f78001e80fb00ae009000808f5000c3
:10350c00f4ff3c00370007000004e00001003a0023
:10351c002a000700000000000080fa0000000600ee
:10352c000200fa00004f7800d18080008002210058
:10353c00010040001e487800d08080008000e80028
:10354c00f0072800008060000000e00004003d004f
:10355c000000e90001f82f00008070000000e80076
:10356c00d0808800000000000080fa0000000600f7
:10357c000200fa00e180800080022100010040007e
:10358c00104f7800e08080008000e800f0072800f1
:10359c00008060000000e00004003d000000e90035
:1035ac0001f82f00008070000000e800e080880027
:1035bc001e4078000080fa00000006000200fa00ad
:1035cc0010c0b3001ef0b700e9ff0700004f7800f1
:1035dc001e80fb0020118800000000000080fa0013
:1035ec00000006000000fa001ed0bf000080fa00a8
:1035fc00000006000200fa00d1808000e08080000c
:10360c00808f500005003500d1808000e080800064
:10361c0000805000000f780006003700e180800029
:10362c00d0808000808050000008200001005000f5
:10363c00000f78001e0078000080fa0000000600e1
:10364c000200fa00ebff0700800078000008200061
:10365c0001005000000f78001e0078000080fa0076
:10366c00000006000200fa00004f7800440007003a
:10367c000000e0000f00340001818000800a21006e
:10368c00010040001e487800008180008000e800a6
:10369c00f0072800008060000000e00004003d00fe
:1036ac000000e90001f82f00008070000000e80025
:1036bc0000818800000000000080fa000000060075
:1036cc000200fa0011818000800a210001004000f4
:1036dc00104f7800108180008000e800f00728006f
:1036ec00008060000000e00004003d000000e900e4
:1036fc0001f82f00008070000000e80010818800a5
:10370c001e4078000080fa00000006000000fa005d
:10371c000181800010818000808f500002003200f7
:10372c0010c0b300010037000040eb000080fa002d
:10373c00000006000200fa00018180001081800068
:10374c00808f5000050035000181800010818000c1
:10375c0000805000000f78000600370011818000b7
:10376c000081800080805000000820000100500083
:10377c00000f78001e0078000080fa0000000600a0
:10378c000200fa00ebff0700800078000008200020
:10379c0001005000000f78001e0078000080fa0035
:1037ac00000006000000fa0021e3a9002143a80054
:1037bc00001980000080a1000090a1000019880071
:1037cc002043a900001980000050a0000060a00058
:1037dc000070a000001988001019800000d0a10012
:1037ec0000e0a10000f0a100101988002343a800fc
:1037fc00101980000080a1000090a1001019880011
:10380c001119800030f82f00008060000040a000eb
:10381c00101988002203a9002223a90025e3a9007e
:10382c00f0c0b30024e3b70021198000f00f2e0084
:10383c008080600000f020000100700020198800da
:10384c003303a9001e0ea8001f0ea8001f2ea800ef
:10385c001f4ea8001f6ea8003003a8003103a8005b
:10386c003123a8003143a8003163a800411980001e
:10387c0000fe2f00008060004019880028e3a9009a
:10388c0001a8a90021a8a80021e3a80000000000bd
:10389c000080fa00000006000000fa002023a800b7
:1038ac00000000000080fa00000006000000fa0092
:1038bc00e01421000080fa00000006000000fa006d
:1038cc0025d0bf000080fa00000006000000fa00be
:1038dc002570ef00000000000080fa0000000600d8
:1038ec000000fa00817420009140780000ccb300f5
:1038fc0000c060007041b30048e7b700313a800067
:10390c0000e02f0080806000800520000100700026
:10391c00303a8800203a80000060a1000070a100bd
:10392c00203a8800213a800000fe2f0000806000c1
:10393c000000a000203a880012c0b30080c7b3007a
:10394c00a1c9b30033742000804978008149780004
:10395c0082497800103a80000040780000417800dd
:10396c000204a00060c4b30071c5b300237420002e
:10397c008049780081497800824978000000000075
:10398c00103a80004c00de0067406000e14f5000b0
:10399c00fbff3a005927a800c03a80000000a000a5
:1039ac000010a1000020a100c03a88005ac7bf0037
:1039bc000000a0000010a0000020a0005ae7b700f3
:1039cc00c03a80000050a1000060a0000070a00070
:1039dc00c03a880059a7a80059e7a80000000000c9
:1039ec00c03a80004e00de0061406000e14f5000a4
:1039fc00fbff3a0000000000103a80004500de009a
:103a0c0061406000e14f5000fbff3a0000000000f5
:103a1c000080fa00000006000000fa002002a90055
:103a2c00001180000010a1000020a10000118800ee
:103a3c0020a2a9002062a8001008200040118800d4
:103a4c0023a2a90023e2a9000188a9002188a800cb
:103a5c00101180000060a1000070a10010118800fe
:103a6c000168a9002168a80021e2a8002342a8004f
:103a7c00000000000080fa00000006000600fa00ba
:103a8c0010079800210798000040eb00004f7800c9
:103a9c000040eb00004f78001100370000000000e0
:103aac00101180004900de00614060000004e0005d
:103abc00fbff3a009e0090000e80e8000108e80031
:103acc001001780012079800114078000080fb006c
:103adc00201188001e4078000040e800004f78005c
:103aec001e80fb00ae009000808f5000ebff3c006e
:103afc00000000000080fa00000006000000fa0040
:103b0c000e2eef001e2eef003e2eef002e2eef009d
:103b1c004e2eef006e2eef0080cea90080aea900d5
:103b2c00808ea900816ea900714ea90091eea900aa
:103b3c00000ea900012ea900014ea900706ea9006b
:103b4c00700ea800190007002136800000f82f0025
:103b5c0080806000e00420000100700020368800a6
:103b6c004134800000fc2f00008060000000a000a9
:103b7c004034880003000700000000000080fa00b9
:103b8c00000006000000fa002174200062042000ee
:103b9c0073052000824878008348780042c7a8004b
:103bac00000000000080fa00000006000000fa008f
:103bbc0021742000620420007305200082487800e4
:103bcc008348780042c7a900000000000080fa007a
:043bdc0000000600df
:020000040000fa
:103be0005a1100000800000082000000426f6e00c1
:103bf0006a6f750072000000001000000c000000e9
:103c0000800000001410000006000000800000008a
:103c10002811000026000000800000000c100000a9
:103c20000800000082000000000048004200000080
:103c3000204100004e1100000c0000008000000038
:103c40002410000002000000800000002810000086
:103c500080000000800000001a1000000600000034
:103c600080000000a810000080000000800000001c
:103c7000201000000400000080000000261000005a
:0c3c8000020000008000000000000000b6
:020000040000fa
:0200000401f009
:04000800cfffff0027
:020000040000fa
:0200000401f009
:04000c00f9ffff00f9
:020000040000fa
:0200000401f009
:040010005bffff0093
:020000040000fa
:0200000401f009
:040014007fffff006b
:020000040000fa
:0200000401f009
:04001800cfffff0017
:020000040000fa
:0200000401f009
:04001c00deffff0004
:020000040000fa
:0200000401f009
:04002000cfffff000f
:00000001FF
