:020000040000fa
:080000000002040000000000f2
:020000040000fa
:040008007803000079
:020000040000fa
:04000c007803000075
:020000040000fa
:040010007803000071
:020000040000fa
:04001400780300006d
:020000040000fa
:040018007803000069
:020000040000fa
:04001c007803000065
:020000040000fa
:040020007803000061
:020000040000fa
:04002400780300005d
:020000040000fa
:040028007803000059
:020000040000fa
:04002c007803000055
:020000040000fa
:040030007803000051
:020000040000fa
:04003400fa020000cc
:020000040000fa
:040038007803000049
:020000040000fa
:04003c007803000045
:020000040000fa
:040040007803000041
:020000040000fa
:04004400780300003d
:020000040000fa
:040048004803000069
:020000040000fa
:04004c007803000035
:020000040000fa
:040050007803000031
:020000040000fa
:04005400780300002d
:020000040000fa
:040058007803000029
:020000040000fa
:04005c00520300004b
:020000040000fa
:040060007803000021
:020000040000fa
:04006400780300001d
:020000040000fa
:040068007803000019
:020000040000fa
:04006c007803000015
:020000040000fa
:040070007803000011
:020000040000fa
:04007400780300000d
:020000040000fa
:040078007803000009
:020000040000fa
:04007c007803000005
:020000040000fa
:040080007803000001
:020000040000fa
:0400840078030000fd
:020000040000fa
:0400880078030000f9
:020000040000fa
:04008c0078030000f5
:020000040000fa
:0400900078030000f1
:020000040000fa
:040094001c03000049
:020000040000fa
:0400980078030000e9
:020000040000fa
:04009c0078030000e5
:020000040000fa
:0400a00078030000e1
:020000040000fa
:0400a40078030000dd
:020000040000fa
:0400a80078030000d9
:020000040000fa
:0400ac0078030000d5
:020000040000fa
:0400b00078030000d1
:020000040000fa
:0400b40078030000cd
:020000040000fa
:0400b80078030000c9
:020000040000fa
:0400bc0078030000c5
:020000040000fa
:0400c00078030000c1
:020000040000fa
:0400c40078030000bd
:020000040000fa
:0400c80078030000b9
:020000040000fa
:0400cc0078030000b5
:020000040000fa
:0400d00078030000b1
:020000040000fa
:0400d40078030000ad
:020000040000fa
:0400d80078030000a9
:020000040000fa
:0400dc0078030000a5
:020000040000fa
:0400e00078030000a1
:020000040000fa
:0400e400780300009d
:020000040000fa
:0400e8007803000099
:020000040000fa
:0400ec007803000095
:020000040000fa
:0400f0007803000091
:020000040000fa
:0400f400780300008d
:020000040000fa
:0400f8007803000089
:020000040000fa
:0400fc007803000085
:020000040000fa
:040100007803000080
:020000040000fa
:04010400780300007c
:020000040000fa
:040108007803000078
:020000040000fa
:04010c007803000074
:020000040000fa
:040110007803000070
:020000040000fa
:04011400780300006c
:020000040000fa
:040118007803000068
:020000040000fa
:04011c007803000064
:020000040000fa
:040120007803000060
:020000040000fa
:04012400780300005c
:020000040000fa
:040128007803000058
:020000040000fa
:04012c007803000054
:020000040000fa
:040130007803000050
:020000040000fa
:04013400780300004c
:020000040000fa
:040138007803000048
:020000040000fa
:04013c007803000044
:020000040000fa
:040140007803000040
:020000040000fa
:04014400780300003c
:020000040000fa
:040148007803000038
:020000040000fa
:04014c007803000034
:020000040000fa
:040150007803000030
:020000040000fa
:04015400780300002c
:020000040000fa
:040158007803000028
:020000040000fa
:04015c007803000024
:020000040000fa
:040160007803000020
:020000040000fa
:04016400780300001c
:020000040000fa
:040168007803000018
:020000040000fa
:04016c007803000014
:020000040000fa
:040170007803000010
:020000040000fa
:04017400780300000c
:020000040000fa
:040178007803000008
:020000040000fa
:04017c007803000004
:020000040000fa
:040180007803000000
:020000040000fa
:0401840078030000fc
:020000040000fa
:0401880078030000f8
:020000040000fa
:04018c0078030000f4
:020000040000fa
:0401900078030000f0
:020000040000fa
:0401940078030000ec
:020000040000fa
:0401980078030000e8
:020000040000fa
:04019c0078030000e4
:020000040000fa
:0401a00078030000e0
:020000040000fa
:0401a40078030000dc
:020000040000fa
:0401a80078030000d8
:020000040000fa
:0401ac0078030000d4
:020000040000fa
:0401b00078030000d0
:020000040000fa
:0401b40078030000cc
:020000040000fa
:0401b80078030000c8
:020000040000fa
:0401bc0078030000c4
:020000040000fa
:0401c00078030000c0
:020000040000fa
:0401c40078030000bc
:020000040000fa
:0401c80078030000b8
:020000040000fa
:0401cc0078030000b4
:020000040000fa
:0401d00078030000b0
:020000040000fa
:0401d40078030000ac
:020000040000fa
:0401d80078030000a8
:020000040000fa
:0401dc0078030000a4
:020000040000fa
:0401e00078030000a0
:020000040000fa
:0401e400780300009c
:020000040000fa
:0401e8007803000098
:020000040000fa
:0401ec007803000094
:020000040000fa
:0401f0007803000090
:020000040000fa
:0401f400780300008c
:020000040000fa
:0401f8007803000088
:020000040000fa
:0401fc007803000084
:020000040000fa
:04020000780300007f
:020000040000fa
:04020400780300007b
:020000040000fa
:040208007803000077
:020000040000fa
:04020c007803000073
:020000040000fa
:04021000780300006f
:020000040000fa
:04021400780300006b
:020000040000fa
:040218007803000067
:020000040000fa
:04021c007803000063
:020000040000fa
:04022000780300005f
:020000040000fa
:04022400780300005b
:020000040000fa
:040228007803000057
:020000040000fa
:04022c007803000053
:020000040000fa
:04023000780300004f
:020000040000fa
:04023400780300004b
:020000040000fa
:040238007803000047
:020000040000fa
:04023c007803000043
:020000040000fa
:04024000780300003f
:020000040000fa
:04024400780300003b
:020000040000fa
:040248007803000037
:020000040000fa
:04024c007803000033
:020000040000fa
:04025000780300002f
:020000040000fa
:04025400780300002b
:020000040000fa
:040258007803000027
:020000040000fa
:04025c007803000023
:020000040000fa
:04026000780300001f
:020000040000fa
:04026400780300001b
:020000040000fa
:100400000f0521000eff27000e01880000000000ec
:10041000000020000000e000020032000001200087
:100420002002880014000700b30007000000e0006d
:1004300003003a0000a02100010020000200370064
:100440000000200001002000810f70000100320038
:100450000f000700000020000000e0000200320052
:100460000000020000000000c60b020000000000b7
:100470000040da000000fe00200020000000e00044
:1004800002003200100020009001880000000600e9
:10049000a1028800800478000000eb001f003700f4
:1004a000e284440054a0b4009905ba00e2844400f8
:1004b00054a0b4009906ba00e284440054a0b400e9
:1004c0000006eb00476fde00fd07b200ae018800ba
:1004d000636ce10003003a000ad801000000eb0061
:1004e0000e003700606ce10008003a00004deb00a0
:1004f0000a05e800020039003420ec000af0a000f0
:100500008b05e900f9ff3e00040037006168e10057
:10051000010032000086eb000b00070019c7ba008b
:100520000e04e0001905ba0003003a000a00e000da
:10053000dbff3a0000000600fe07b200ae028800b2
:100540008a047800f5ff37000cd0a300e20f4d00bd
:100550001c003b0089027800354dba000a05e8000e
:10056000020039003420ec000af0a0008b05e900fd
:100570000f003200254dba000a05e80002003900dc
:100580003420ec000af0a0008b05e90008003200de
:100590000c00e0000600320015cdba000a05e800a4
:1005a000020039003420ec000af0a0008b05e900bd
:1005b0008984e80054a0b4000b00e000e2ff3a0098
:1005c000000006009902ba00055d78008b05e9007d
:1005d000f7ff3200c82ade00055d78008b05e900d0
:1005e000f3ff32000c00e000f1ff320019ddba0029
:1005f000eeff37003600f800809fbe00829fbe00ed
:10060000849fbe00869fbe000000fa000068a9001b
:100610005f070700f00a0700000000000080fa00f2
:100620004f03be004f02be004f01be004f00be0090
:100630003600f900004006003600f800809fbe003a
:10064000829fbe00849fbe00869fbe000000fa000d
:100650000368a90063050700a0808000b1808000c6
:1006600061004000e0804800a0808800b1808800e0
:10067000000000000080fa004f03be004f02be00e1
:100680004f01be004f00be003600f90000400600da
:100690000000fa000108a900000000000080fa0034
:1006a00000400600801f78000000fa0001a8a900a1
:1006b0000018800020828800101880003082880096
:1006c0002018800040828800301880005082880006
:1006d000401880006082880010c0b3001bf0b70093
:1006e000000000000080fa004f0078000040060083
:1006f0000040da000000fe000000050014002000a9
:10070000aa033700f4ff2f00a80337000001be0042
:100710003c0007000470a70003f0a1006509b100c8
:10072000160032000d0035006828e1000600350093
:10073000f0ff2f00f1ff27000300e00013003b0053
:1007400001002800000005000000400081804800f2
:100750008502e900fcff3a0008003700f88f4200ec
:1007600002003c008000eb00000005008100d10089
:100770000080d3008502e800fcff3a000300e0009f
:1007800002003b0060001000e0801800000006003e
:100790000001be001b0007000470a70003f0a100c9
:1007a00003f8a30013003a006509b10010003200fd
:1007b000090035006928e100020035000100280029
:1007c0000000050000004000818048008502e9002b
:1007d000fcff3a0000000600f88f420005003500db
:1007e0008100d1000080d3008502e800fcff3a00c0
:1007f000000006008000eb00000005006011b8005a
:1008000085033700c70ade00f107b200f50fb2001a
:1008100008003200e1cf4200020032000170a00067
:1008200024000500810f700001003200040805005b
:1008300044000500810f700002003a00140005001a
:100840008502e9000000400081c04800fcff3b0039
:100850000170a0002400050007f82700078361004d
:100860000638e10004003a00f707200087836100a2
:100870008703710001003a0003f0a200889fbe00c8
:100880008a9fbe008c9fbe00470ade000480a10044
:10089000c71ade000580a100070028000785600058
:1008a00087856100f70f20000720e1009e003200dd
:1008b0000728e1009c003200010678000400e000f7
:1008c000b4003200f7072000878060000170a000ac
:1008d0000500e000c0003200f707200087816100ba
:1008e0000370a000050652000f003a000b50e10013
:1008f0000b0032000308e10002003a000200e100b0
:100900007e0032000204500083845800040031004d
:100910000001fd008101fd008402fd008a05fd004b
:100920006044b800210037000520e10005003d00cb
:100930000001fd008101fd008402fd008a05fd002b
:10094000050652007a60e100050035000170a10043
:100950004722dd00848070008a80700063003700c9
:100960006044b800ef02660007ff2f00070666002c
:100970000500e00006003400f08312008714dd005b
:100980000511de00071bdd00060171008519de0080
:100990007060e100050035000904780082047800e9
:1009a000030178008001eb00700656000b50e10057
:1009b00003003a0002004000838048000400370032
:1009c00060041400e0841c0002005800838058007a
:1009d0000188a300060032008100d1000080d3000e
:1009e0008984d3000884d3000402e800270037007c
:1009f0000178a30025003a000100e0000300320066
:100a00008186cf00698656000a0037008c002000de
:100a10000000e00004003a00090078008804780033
:100a20000004eb00700252008086cf000d064600e5
:100a30000c06e9007060e1000600350080007800d7
:100a400009007800880478000004eb007006560066
:100a5000700252000c00e0000c0034008c08dd0035
:100a6000f00316000703de00868070000c00dd0036
:100a7000074bde00060070008c4cdd000743de00f3
:100a8000868474000c44dd000c0252006120e100f9
:100a900020003500610160000700280087816400a4
:100aa000f7ff270087836400070374000300e0005a
:100ab0000600320082037300040032000000e800e8
:100ac000e08048000188a3000e003a00f70f2000e4
:100ad0000720e1004a003d000170a1004722dd002f
:100ae000810072008a8070000000be004f06be00c8
:100af0004f05be004f04be00000006006000b800b5
:100b0000faff37008100d1000080d3000402e80022
:100b1000eeff37000401780089017400a10107008d
:100b20008a807000f1ff3700f701070007027800a4
:100b30000001fd008101fd00f3010700870278003c
:100b4000850372000778a300040032000001fd0055
:100b50008101fd0006020700e4ff37008503620003
:100b60000768a300080032000b50e10003003200c8
:100b7000f0ff2f00f1ff2700dcff37000001fd0030
:100b80008101fd00d9ff37000468a300d7ff3200c0
:100b9000faff3700f8ff2700888360000b003a0057
:100ba0000000e00009003a008303640082837300c0
:100bb000020032000200be00ccff37000b50e10003
:100bc000ceff3a000200be00c8ff3700140020002c
:100bd000810064003eff3700f8ff27008883610032
:100be00004003a000200e00002003a008c007800a5
:100bf000beff3700150020008301640039ff370075
:100c000001f827000000200081007500b7ff3700c1
:100c1000889fbe008a9fbe008c9fbe001b002000e4
:100c20000202be000586680006002800060666006f
:100c30004709de00f20fb200820032000243e800f2
:100c400080003200c729de00f30fb2007d003200c1
:100c50000343e8007b003200f107b2000170a000fe
:100c6000f507b2000570a000c708dd004903de00eb
:100c7000868070004700dd00c72add004923de00c2
:100c8000868272004722dd000305510004035000f4
:100c90008583580003003100000040008180480037
:100ca0000a05e9008c1f78008a9fbe0004005000ee
:100cb000858058000402420085824a0000004000fe
:100cc000818048000005eb000004be006033b800de
:100cd0000406be000d48e100560031001100090075
:100ce0004dccd8000c01b8000d02b8008481410041
:100cf00060824a008283530003045c0084845c00a9
:100d000060055d000a00e00025003a0080057800db
:100d10000d40e100490031008800780007007800ac
:100d2000110009004d88d8000c01b8000d02b80070
:100d30008481410060824a006003110083835b006c
:100d400004045c00e0845c000900e00021003a003b
:100d50004f01be000300e0002b003200e301600001
:100d6000070673008c81710001003200640070007e
:100d70004200de004e5edd000c007000c258de0056
:100d800001e0a00083010700cf017800818071009d
:100d90004f06be004f05be004f04be000000060017
:100da0008c8343000d044c00e0844c0060054d0032
:100db0000000e9000a00e000d4ff32008c83430009
:100dc0000d044c00e0844c0060054d000000e9007b
:100dd000ceff37000c0343008d834b0060044c00b2
:100de000e0844c000000e9000900e000d8ff320078
:100df0000c0343008d834b0060044c00e0844c00e6
:100e00000000e900d2ff37004200de004e5edd0048
:100e10000c007000c258de0001e0a000cf01780095
:100e20000300e000daff320060001000e0801800ec
:100e3000d7ff3700f0ff2f00aaff3700f0ff2f0089
:100e4000b9ff37000404be002f01070087067800b1
:100e50000004fd008104fd002b01070007836600ec
:100e60000678a300030032000960a7000800be0056
:100e70002c0037000d78a300020032000800be00ed
:100e8000280037000778a30026003a0001f0a100ef
:100e900009f0a1000668a30003003200f1ff27005b
:100ea000f0ff2f00baff37000d68a30003003200e7
:100eb0000800be008c807000b5ff37000768a300f3
:100ec00007003a000648a30003003200f1ff2700a4
:100ed000f0ff2f00aeff37000d48a30003003200e3
:100ee0006000b8008c807000a9ff37000748a3009d
:100ef0000400320001f82700000020008c80700000
:100f0000a3ff3700760107000004fd008104fd0007
:100f100002057800720107000802be008a0178000d
:100f200059ff37000160a00012022000e280880013
:100f300097ff37000100e000120032000500e000da
:100f400010003200889fbe008a9fbe008c9fbe00aa
:100f50000006eb0001f8a30003003200600010005f
:100f6000e08018000cf0a00005f8a3000300320098
:100f700060021200e0821a000cf0a2008005eb0073
:100f800041ff37006000b8000200050003836800dd
:100f90000700280007036300470ade000480a10061
:100fa000c71ade000580a100f70f20000720e1002e
:100fb000420032000728e10040003200889fbe0056
:100fc0008a9fbe008c1f7800f107b200f307b200c1
:100fd0000400e000640032000170a0000500e000a1
:100fe000680032000370a00085054200eb07b100e5
:100ff0000204b8000302b8008484440060854a00fb
:10100000020ab800848444000a854a00030ab80032
:1010100004054500040033000804d0008984d20090
:101020000a85d2008b05e9006158e1003d003500da
:10103000021020000901610003082000898161007d
:10104000f70720008783640008867300c84cde0021
:10105000c853dd00878474004855de000300e000bb
:101060000600320082037600040032008904e800a2
:1010700060054d000a88a3000c003a00f70f20001d
:101080000758e10044003d000a70a100c75ddd0083
:101090000a8575008a007300090078004f06780001
:1010a0004f05be004f04be00000006000a05d10037
:1010b0008984d3008b05e800f0ff3700881f780093
:1010c0000604780090000700070278000001fd0088
:1010d0008101fd008c000700870278008503720003
:1010e0000778a300050032000001fd008101fd002a
:1010f0009f0007004f04780000000600850372007f
:101100000748a30003003200f0ff2f00f1ff270083
:10111000f8ff37000000200001f8270088807000e9
:10112000f4ff3700880178004848dd0080817100b5
:101130004848de00c850dd0001007000c850de00e5
:10114000060478000b017800160007008880700004
:10115000d2ff37000500e000050032001700200034
:101160003a0007009dff370081037000f9ff3a0045
:10117000860078004f0678004f05be004f04be0081
:101180000000050083037100f9ff320027002000f2
:101190002e00070094ff370001f8270086807000ba
:1011a000f4ff37000100e000260032006101110069
:1011b0007810e10023003c006022b8007010e100cc
:1011c0000400350080027800010078008000eb0008
:1011d000700151000200e0000900340070031100aa
:1011e000062add00822ade008603dd008782720087
:1011f0000200de00860bdd00070070008208de00c2
:1012000084817100f4ff27000482620084817100f0
:1012100004002800848262006102600005f0a600dc
:101220000000060004827100070032000000e800a0
:10123000e0804800000006000002be006000b80028
:10124000efff37006000b80000000600889fbe0076
:101250000004eb006138e10016003a000100e000f4
:1012600008003a00c800de004800dd0088002000c9
:101270000100e00003003a00c800de004800dd0085
:10128000680444008184cf00e984540006003400df
:101290008908dd00f08314008703de00878070007a
:1012a0000900dd0009044400610214004f04be007f
:1012b000000006000300e00008003a00c811de004c
:1012c0004811dd00880020000300e00003003a0020
:1012d000c811de004811dd00680444008384cf009b
:1012e000e9845400060034008919dd00f0831400fd
:1012f0008713de00878171000911dd0009044400b5
:10130000e1021400e9ff37002700200001f0a700e8
:1013100017002000470bde00f60fb2000400320079
:101320000643e8000a0032004702b300000006004e
:1013300001037800f607b2000603700002003a00cd
:101340000703b300000006008702b3000000060098
:1013500001037800f607b2000603700002003200b5
:101360000770a000000006000760a0000000060053
:101370000478a300040032000578a30003003200c3
:101380000168a30001003a000200be000160a00055
:101390000000060081017000270032008002eb008f
:1013a00001f8a3000300320060001000e080180084
:1013b00015002000f4072000020242002000340043
:1013c000f703200087036000060420000003630089
:1013d00002082000000161004700de00c909dd00ad
:1013e00000807100c708de000600e000080032003f
:1013f00087037100060032001000b0000180b000c9
:101400000188a30002003200c108de000402e800e7
:10141000f107b200f30f20000320e10003003d00bc
:101420004722dd00810072002900370001f8270003
:101430000000eb00260037006000b8000000060046
:10144000680212007f20e100020034006000b80052
:101450001f0037006011b8007020e1000400350063
:1014600080017800010078008000eb0070025200db
:101470000400e00009003400f00312000719dd0049
:101480008419de000703dd00868171000400de00a0
:10149000070bdd00060070008408de00f7ff270060
:1014a0008383630087037100060028000303630041
:1014b000070032000700e00003003a00610160000d
:1014c00002817300020032001000b0000180b00001
:1014d0000500a6000000060001f0a00000000600c4
:1014e0004f0ade004709de00f107b200f20fb2003a
:1014f0000b003200f207b1000170a000c708dd0048
:10150000c901de00838070004700dd000400a600f2
:101510000000060060001000e080180000000600d7
:10152000810f700001003a00000006008182cf00a8
:101530000500e00010003e008082cf00ee824200f5
:101540007028e1000400390007003e0080007800a8
:101550000000eb000e003700708312008600de00f2
:101560000500dd000a003700708352008600dd00b0
:101570000000eb0006003700e28252008508dd0023
:10158000708312000603de00868070000500dd0017
:101590007507b0000501ea000400a600000006007f
:1015a00060001000e080180000000600889fbe0068
:1015b0008a9fbe00841f78006c0007004f007800ef
:1015c00011003300f0ff2f00838f6c0006003b00fa
:1015d000040565000a00a7000800370009f0a6000e
:1015e0001000200008003700820f5400838f5c0039
:1015f000030039001000200001003e000000200020
:1016000009f0a7000000ea004f05be004f04be002d
:101610000000e00000000600889fbe008a9fbe0018
:101620000082700004027100048271002600320002
:101630000004be000200be006011b8006b0920006b
:10164000950220000182cf000a0039000541b10057
:101650000082cf00070039000541b1000982cf00a8
:10166000040039000541b1000882cf0001003900b3
:101670000541b10005425200120032000a003b0051
:1016800082817100610164008100d1000080d3007b
:101690008984d3000884d3008b05e8000442e80065
:1016a000f7ff3a00070037000804440089844c0023
:1016b00000004800818048008b05e9000442e900f1
:1016c000f9ff3a00030007004f05be004f04be00bb
:1016d0000000060081002000618055000b003d00e5
:1016e0000b00200061fe2f000100e1001d0034000e
:1016f00082817100610164008904d1000884d300f3
:101700000000e800faff3a00710020006100640068
:101710000300700002006000090032006104440010
:10172000e0844c000988a500050032008b05e80024
:101730006808e10002003a008904d1000884d3005f
:10174000f20f20000258e10005003d00c75ddd00fa
:10175000f907b200898075000800780000000600d3
:101760000bf827008b007800000005000004be0085
:1017700024fc07000003be000405be000200be00fa
:0c17800020fc0700844f750000000600ec
:020000040000fa
:10178c000600fa00a3060700f0060700190407007c
:10179c00240407002f040700460207004e0607002a
:1017ac00040ea800052ea80095eea800054ea80072
:1017bc00746ea8008e060700e14f5000d3003a006b
:1017cc008f06070086060700000f78001e80e800d1
:1017dc00100078008000eb0005fc0700323323007a
:1017ec0033052400e6fd07000001780001007800b5
:1017fc0082027800000278000200200003582400c6
:10180c0005007800840078000000be00fdfc070095
:10181c0010079800210798001e019000ae0190005f
:10182c000000200081202400f6fc07000001780055
:10183c00010078008202780000027800020020008b
:10184c00030a240005007800840078000000be0024
:10185c00fefb07008001780001017800030078008e
:10186c00820078000000be00c0818800d181880011
:10187c00410020001e804000100078008000eb002a
:10188c00dbfb07003233230033052400bcfd0700cb
:10189c0000017800010078008202780000027800d4
:1018ac000200200003582400050078008400780012
:1018bc000000be00d3fc0700100798002107980019
:1018cc001e019000ae019000000020008120240039
:1018dc00ccfc07000001780001007800820278003f
:1018ec000002780002002000030a240005007800a2
:1018fc00840078000000be00d4fb07008001780053
:10190c000101780003007800820078000000be001e
:10191c00a0818800b1818800610020001e804000f9
:10192c00100078008000eb00b1fb0700323323007d
:10193c003305240092fd07000001780001007800b7
:10194c008202780000027800020020000358240074
:10195c0005007800840078000000be00a9fc070098
:10196c0010079800210798001e019000ae0190000e
:10197c000000200081202400a2fc07000001780058
:10198c00010078008202780000027800020020003a
:10199c00030a240005007800840078000000be00d3
:1019ac00aafb070080017800010178000300780091
:1019bc00820078000000be00808188009181880040
:1019cc00810020001e804000100078008000eb0099
:1019dc0087fb0700323323003305240068fd070022
:1019ec000001780001007800820278000002780083
:1019fc0002002000035824000500780084007800c1
:101a0c000000be007ffc070010079800210798001b
:101a1c001e019000ae0190000000200081202400e7
:101a2c0078fc070000017800010078008202780041
:101a3c000002780002002000030a24000500780050
:101a4c00840078000000be0080fb07008001780055
:101a5c000101780003007800820078000000be00cd
:101a6c00e0818800f18188001e0078001000780069
:101a7c008000eb005efb07003233230033052400ab
:101a8c003ffd070000017800010078008202780019
:101a9c0000027800020020000358240005007800a2
:101aac00840078000000be0056fc07001007980068
:101abc00210798001e019000ae019000000020004c
:101acc00812024004ffc0700000178000100780001
:101adc00820278000002780002002000030a240031
:101aec0005007800840078000000be0057fb07005a
:101afc0080017800010178000300780082007800f2
:101b0c000000be000082880011828800c081800025
:101b1c00d181800002002000031f2400f6fa070088
:101b2c000000e0000200350084aea900010037007f
:101b3c0084aea800a0818000b1818000020020004a
:101b4c00831c2400ecfa07000000e00002003500c2
:101b5c00848ea90001003700848ea800808180004b
:101b6c009181800002002000031f2400e2fa07008c
:101b7c000000e00002003500856ea900010037006e
:101b8c00856ea800e0818000f181800002002000b9
:101b9c00031f2400d8fa07000000e0000200350003
:101bac00754ea90001003700754ea8000082800018
:101bbc001182800002002000031f2400cefa0700cf
:101bcc000000e0000200350084cea900f9fe3700c9
:101bdc0084cea800f7fe37000000fa000ad0bf0040
:101bec000080fb006100b9001201200003002000fe
:101bfc00820f5000838f580082003e0000060100c7
:101c0c00110037001b003700240037002f0037006d
:101c1c003000370045003700460037005b003700c6
:101c2c005c0037006700370068003700730037002e
:101c3c0074003700730037007200370071003700f2
:101c4c002f003700460037001430ef001630ef003d
:101c5c006011b8006000b800c80207000200200044
:101c6c0003f823006000b800c402070010c0b300e2
:101c7c000af0b700a2808000b3808000803e200074
:101c8c0001002000800f5100818f59005f00360049
:101c9c0020c0b3000af0b7005c0037006011b80038
:101cac0000002000011f2400b402070002002000e5
:101cbc0003f8230000002000011f2400af020700de
:101ccc0030c0b3000af0b7005100370053000700d2
:101cdc004f0037006011b8000000200001172400ed
:101cec00a60207000200200003f823006000b800e1
:101cfc00a202070050c0b3000af0b700440037003e
:101d0c006011b80000002000011224009b020700a3
:101d1c000200200003f823006000b80097020700bf
:101d2c0050c0b3000af0b700390037003b00070081
:101d3c00370037006011b8006000b8008f02070050
:101d4c000200200003f823000000200001172400eb
:101d5c008a02070070c0b3000af0b7002c003700ed
:101d6c006011b8006000b800840207000200200077
:101d7c0003f8230000002000011224007f0207005a
:101d8c0070c0b3000af0b700210037002300070031
:101d9c001f0037006011b80000002000011724005c
:101dac00760207000200200003f823000000200048
:101dbc0001172c007102070090c0b3000af0b700a5
:101dcc001300370015000700110037006011b80030
:101ddc000000200001172c00680207000200200000
:101dec0003f8230000002000011724006302070001
:101dfc00b0c0b3000af0b7000500370007000700b9
:101e0c00030037000a70ef000100370000000000eb
:101e1c00000000000080fa00000006000200fa003a
:101e2c000040eb00004f78008081800091818000a1
:101e3c0002002000831c24002dfa07000000e000a3
:101e4c0011003d00a0818000b181800002002000c3
:101e5c00031a240028fa07000000e0000a003400ee
:101e6c00c0818000d181800002002000831c2400ee
:101e7c0021fa07000000e0000300340020c0b3008a
:101e8c00004f78005b0037008081800091818000da
:101e9c0002002000831c240017fa07000000e00059
:101eac0011003400a0818000b1818000020020006c
:101ebc00031a240010fa07000000e0000a003400a6
:101ecc00c0818000d181800002002000831c24008e
:101edc0007fa07000000e00003003d0010c0b3004b
:101eec00004f780043003700a0818000b181800052
:101efc0002002000031a2400fdf907000000e00096
:101f0c0003003d0030c0b300004f780039003700ab
:101f1c00808180009181800002002000831c2400bd
:101f2c00f5f907000000e00011003400a0818000ea
:101f3c00b181800002002000031a2400eef9070092
:101f4c000000e0000a003400c0818000d1818000d4
:101f5c0002002000831c2400e7f907000000e000c9
:101f6c00030034000040eb00004f780021003700e4
:101f7c00a0818000b181800002002000031a24009f
:101f8c00ddf907000000e0000a0034000082800048
:101f9c00118280000200200003222400d4f90700e3
:101fac000000e00003003d0040c0b300004f78008b
:101fbc0010003700e0818000f181800002002000d9
:101fcc0003222400ccf907000000e00009003400d3
:101fdc00a0818000b181800002002000031a24003f
:101fec00c5f907000000e0000200340050c0b30047
:101ffc00004f78001e4078000004e00003003a0017
:10200c0020c0b3000bf0b7001d0037001e40780055
:10201c00e24f500003003a0040c0b3000bf0b70091
:10202c00170037001e407800e14f500003003a00c3
:10203c0060c0b3000bf0b700110037001e407800f1
:10204c00e34f500003003a0080c0b3000bf0b70020
:10205c000b0037001e407800e44f500003003a009c
:10206c0010c1b3000bf0b700050037001e4078001c
:10207c00e54f500002003a0000c1b3000bf0b7006e
:10208c000bd0bf000080fb00a10021009140780024
:10209c008180fb008100e900810f500002003200ba
:1020ac000bd0bf000af0b700000000000080fa005f
:1020bc00000006000000fa0002ccbf000000a100e6
:1020cc000010a1000020a10002ecb7000096200037
:1020dc00206088001061800000a0a00000b0a0006b
:1020ec001061880023cca80023eca800300020004d
:1020fc00206188001062800000a0a00000b0a00049
:10210c001062880043cca80043eca80030002000eb
:10211c002062880001eca800000000000080fa009a
:10212c00000006000800fa00008fbe00220798008d
:10213c00330798000200200003f823002e009000c3
:10214c00be0090006af907000000e00041003d006d
:10215c0002002000031c24001e0078009e0090004a
:10216c0087fb0700000178000100780082027800ec
:10217c000002780060808000718080000001be0049
:10218c0005007800840078000000be00b8f9070054
:10219c0000017800010078008201780000017800cd
:1021ac0003007800820078000000be0075f907007b
:1021bc0030618800608080007180800071f90700b8
:1021cc00706188006011b8001e0078009e009000bd
:1021dc0047f907000000e0001e003d006080800011
:1021ec007180800067f90700306188001e0078005c
:1021fc009e00900001f0a20002002000031c2400ad
:10220c005ffb070000017800010078008202780073
:10221c000002780060808000718080000001be00a8
:10222c0005007800840078000000be0090f90700db
:10223c00000178000100780082017800000178002c
:10224c0003007800820078000000be004df9070002
:10225c00706188006011b8002e009000be009000e4
:10226c0025f907000000e00001003c0042003700a7
:10227c00608080007180800042f907003062880025
:10228c0002002000031c24001e0078009e00900019
:10229c003bfb070000017800010078008202780007
:1022ac000002780060808000718080000001be0018
:1022bc0005007800840078000000be006cf907006f
:1022cc00000178000100780082017800000178009c
:1022dc0003007800820078000000be0029f9070096
:1022ec00706288006011b8001e0078009e0090009b
:1022fc00fff807000000e000010035001e00370069
:10230c001e0078009e00900001f0a2000200200048
:10231c00031c24001afb0700000178000100780060
:10232c00820278000002780060808000718080005a
:10233c000001be0005007800840078000000be009b
:10234c004bf9070000017800010078008201780049
:10235c000001780003007800820078000000be00c5
:10236c0008f907003062880060808000718080006e
:10237c0004f9070070628800000000000080fa0079
:10238c00000006000000fa00889fbe002481800037
:10239c003581800000818000118180000001be0029
:1023ac000400be00d2f807000000e00014003d005d
:1023bc000881800019818000248180003581800093
:1023cc0080808000918080000001be000400be006f
:1023dc0027f90700000178000100780082027800dc
:1023ec00000278000801be00050078008400780027
:1023fc000000be00c70207002081880031818800e0
:10240c002481800035818000008180001181800052
:10241c000001be000400be00b7f807000000e00099
:10242c001400340008818000198180002481800010
:10243c003581800080808000918080000001be008a
:10244c000400be0001f907000001780001007800cb
:10245c0082027800000278000801be0005007800b6
:10246c00840078000000be009302070020818800e1
:10247c003181880020818000318180006011b8009a
:10248c009df807000000e0001e0034002081800051
:10249c003181800002002000031c2400b8fa0700e0
:1024ac0000017800010078008202780000027800b8
:1024bc0060808000718080000001be000500780003
:1024cc00840078000000be00e9f8070000017800e5
:1024dc000100780082017800000178000300780088
:1024ec00820078000000be00a6f80700306188006a
:1024fc006080800071808000a2f807007061880005
:10250c001e00370060808000718080009df80700fd
:10251c0030618800208180003181800001f0a200b0
:10252c0002002000031c240095fa0700000178002b
:10253c000100780082027800000278006080800040
:10254c00718080000001be000500780084007800d6
:10255c000000be00c6f807000001780001007800fa
:10256c008201780000017800030078008200780076
:10257c000000be0083f80700706188006481800051
:10258c007581800040818000518180000001be0077
:10259c000400be0056f807000000e00014003d00e7
:1025ac0048818000598180006481800075818000a1
:1025bc0080808000918080000001be000400be007d
:1025cc00abf8070000017800010078008202780067
:1025dc00000278000801be00050078008400780035
:1025ec000000be004b0207006081880071818800ea
:1025fc006481800075818000408180005181800061
:10260c000001be000400be003bf807000000e00023
:10261c00140034004881800059818000648180005e
:10262c007581800080808000918080000001be0058
:10263c000400be0085f80700000178000100780056
:10264c0082027800000278000801be0005007800c4
:10265c00840078000000be0017020700608188002b
:10266c007181880060818000718180006011b800e8
:10267c0021f807000000e0001e003500608180009a
:10268c007181800002002000031c24003cfa07002a
:10269c0000017800010078008202780000027800c6
:1026ac0060808000718080000001be000500780011
:1026bc00840078000000be006df80700000178006f
:1026cc000100780082017800000178000300780096
:1026dc00820078000000be002af8070030628800f3
:1026ec00608080007180800026f80700706288008e
:1026fc001e003700608080007180800021f8070088
:10270c0030628800608180007181800001f0a2003d
:10271c0002002000031c240019fa070000017800b5
:10272c00010078008202780000027800608080004e
:10273c00718080000001be000500780084007800e4
:10274c000000be004af80700000178000100780084
:10275c008201780000017800030078008200780084
:10276c000000be0007f8070070628800000000003f
:10277c004f04be000080fa00000006000800fa00ba
:10278c00008fbe0022079800330798006011b80034
:10279c002e009000be009000d5f707000000e0006e
:1027ac0005003a001e0078009e00900001f0a20087
:1027bc0040818800518188000200200003f823002a
:1027cc002e009000be009000c9f707000000e0004a
:1027dc0001003200040037001e0178009e019000b9
:1027ec000281880013818800000000000080fa003c
:1027fc00000006000000fa0000002000a13f2400a9
:10280c002e00070005e1a9000421a9000068a90019
:10281c002068a80005e1a800000000000080fa0074
:10282c00000006000000fa0000002000a147240070
:10283c00d70007001fe1a9001e21a9000368a90009
:10284c002368a8001fe1a800000000000080fa0027
:10285c00000006000000fa0013e1a90011e1a90034
:10286c001061a8001021a900800880000040a00081
:10287c000050a000800888000a21ef000621ef001c
:10288c007000200070088800e0702200600888004a
:10289c00204280000000a0000010a1000020a10038
:1028ac00204288000108a9002108a80011e1a80015
:1028bc00000000000080fa00000006000400fa008e
:1028cc00008fbe00200880000040a1000050a10035
:1028dc00200888001e0178009e019000001c2e002c
:1028ec0041c62400c7f807000001780001007800f9
:1028fc00820278000002780002f02f00f3772400a7
:10290c0005007800840078000000be007af707000c
:10291c000000e0008d003400200880000040a00082
:10292c000050a100200888001e0178009e01900034
:10293c00001c2e0041c62400b2f8070000017800ec
:10294c00010078008202780000027800020020006a
:10295c000310240005007800840078000000be00fd
:10296c00a8f80700000178000100780082027800c6
:10297c000002780002f02f00f377240005007800a5
:10298c00840078000000be005bf707000000e00048
:10299c0055003400200880000040a1000050a00029
:1029ac00200888001e0178009e019000001c2e005b
:1029bc0041c6240093f8070000017800010078005c
:1029cc008202780000027800020020000328240014
:1029dc0005007800840078000000be0089f807002c
:1029ec000001780001007800820278000002780073
:1029fc0002f02f00f37724000500780084007800a3
:102a0c000000be003cf707000000e0001d00340091
:102a1c00200880000040a0000050a0002008880082
:102a2c001e0178009e019000001c2e0041c624005f
:102a3c0074f8070000017800010078008202780029
:102a4c000002780002002000033824000500780002
:102a5c00840078000000be006af8070000017800ce
:102a6c0001007800820178000001780003007800f2
:102a7c00820078000000be0021f7070010088800d3
:102a8c00400037001e0178009e019000001c2e00b3
:102a9c0041c624005bf807000001780001007800b3
:102aac008202780000027800020020000328240033
:102abc0005007800840078000000be0051f8070083
:102acc000001780001007800820178000001780094
:102adc0003007800820078000000be0008f70700b1
:102aec0010088800270037001e0178009e01900016
:102afc00001c2e0041c6240042f80700000178009b
:102b0c0001007800820278000002780002002000a8
:102b1c000310240005007800840078000000be003b
:102b2c0038f8070000017800010078008201780075
:102b3c000001780003007800820078000000be00dd
:102b4c00eff60700100888000e0037001e01780011
:102b5c009e019000001c2e0041c6240029f807009d
:102b6c0000017800010078008201780000017800f3
:102b7c0003007800820078000000be00e0f6070039
:102b8c0010088800000000000080fa000000060019
:102b9c000400fa00008fbe00f00880000040a10085
:102bac000050a100f00888001e0178009e019000e2
:102bbc00001c2e0041c6240012f80700000178000a
:102bcc0001007800820278000002780002f02f00e9
:102bdc00f377240005007800840078000000be0024
:102bec00c5f607000000e0008d003400f0088000fe
:102bfc000040a0000050a100f00888001e017800e1
:102c0c009e019000001c2e0041c62400fdf7070019
:102c1c000001780001007800820278000002780040
:102c2c0002002000031024000500780084007800c6
:102c3c000000be00f3f707000001780001007800e7
:102c4c00820278000002780002f02f00f377240053
:102c5c0005007800840078000000be00a6f607008e
:102c6c000000e00055003400f00880000040a10096
:102c7c000050a000f00888001e0178009e01900012
:102c8c00001c2e0041c62400def70700000178006e
:102c9c000100780082027800000278000200200017
:102cac000328240005007800840078000000be0092
:102cbc00d4f7070000017800010078008202780048
:102ccc000002780002f02f00f37724000500780052
:102cdc00840078000000be0087f607000000e000ca
:102cec001d003400f00880000040a0000050a0003f
:102cfc00f00888001e0178009e019000001c2e0038
:102d0c0041c62400bff707000001780001007800dd
:102d1c0082027800000278000200200003382400b0
:102d2c0005007800840078000000be00b5f70700ad
:102d3c000001780001007800820178000001780021
:102d4c0003007800820078000000be006cf60700db
:102d5c00d0088800400037001e0178009e019000ca
:102d6c00001c2e0041c62400a6f7070000017800c5
:102d7c000100780082027800000278000200200036
:102d8c000328240005007800840078000000be00b1
:102d9c009cf70700000178000100780082017800a0
:102dac000001780003007800820078000000be006b
:102dbc0053f60700d0088800270037001e01780062
:102dcc009e019000001c2e0041c624008df70700c8
:102ddc00000178000100780082027800000278007f
:102dec000200200003102400050078008400780005
:102dfc000000be0083f70700000178000100780096
:102e0c0082017800000178000300780082007800cd
:102e1c000000be003af60700d00888000e0037000c
:102e2c001e0178009e019000001c2e0041c624005b
:102e3c0074f7070000017800010078008201780027
:102e4c000001780003007800820078000000be00ca
:102e5c002bf60700d0088800000000000080fa0064
:102e6c00000006000400fa00008fbe006011b800dc
:102e7c001e0078009e0090001ff607000000e00086
:102e8c00030035001e0078009e0090000300370000
:102e9c001e0078009e00900001f0a20080017800d6
:102eac000101780003007800820078000000be0069
:102ebc000080fa00000006000800fa00008fbe0037
:102ecc0022079800330798002e019000be01900055
:102edc001e0078009e00900007f607000000e0003e
:102eec00030034009e0078001e00900002003700a2
:102efc00ae0090003e009000810178000001780047
:102f0c0003007800820078000000be000080fa0008
:102f1c00000006000800fa00008fbe00220798008f
:102f2c00330798002e019000be0190001e0078001f
:102f3c009e009000eef507000000e00003003d004d
:102f4c009e0078001e00900002003700ae0090003a
:102f5c003e009000810178000001780003007800a9
:102f6c00820078000000be000080fa00000006001d
:102f7c000c00fa00008fbe0022079800330798005f
:102f8c0044079800550798004e019000de01900010
:102f9c001e0078009e009000d7f507000000e000ae
:102fac00040034004e019000de019000028fbe0040
:102fbc000a0037002e019000be0190001e00780020
:102fcc009e009000caf507000000e00003003d00e1
:102fdc002e019000be019000028fbe009e00780072
:102fec001e00900081017800000178000300780039
:102ffc00820078000000be000080fa00000006008d
:10300c000400fa00008fbe00b2fd200093042400df
:10301c001e0078009e009000faf607000001780070
:10302c000100780082027800000278000200200083
:10303c004333240005007800840078000000be00b3
:10304c00cff70700000178000100780082007800bb
:10305c00810178000001780003007800820078007c
:10306c000000be000080fa00000006000400fa0018
:10307c00008fbe00b2fd2000930424001e007800d7
:10308c009e009000bef70700000178000100780058
:10309c0082027800000278000200200043332400f2
:1030ac0005007800840078000000be00d5f607000b
:1030bc00000178000100780082007800810178001e
:1030cc000001780003007800820078000000be0048
:1030dc000080fa00000006000000fa0021e3a900bd
:1030ec002143a800001980000080a1000090a100dd
:1030fc00001988002043a900001980000050a0008e
:10310c000060a0000070a000001988001019800059
:10311c0000d0a10000e0a10000f0a100101988006f
:10312c002343a800101980000080a1000090a1008a
:10313c00101988001119800030f82f0000806000f1
:10314c000040a000101988002203a9002223a90026
:10315c0025e3a900f0c0b30024e3b70021198000d7
:10316c00f00f2e008080600000f020000100700045
:10317c00201988003303a9001e0ea8001f0ea800fa
:10318c001f2ea8001f4ea8001f6ea8003003a80019
:10319c003103a8003123a8003143a8003163a800f3
:1031ac004119800000fe2f0000806000401988004b
:1031bc0028e3a90001a8a90021a8a80021e3a800e0
:1031cc00000000000080fa00000006000000fa0079
:1031dc002023a800000000000080fa000000060078
:1031ec000000fa00400421000080fa0000000600f4
:1031fc000000fa001bd0bf000080fa00000006009f
:10320c000000fa001b70ef00000000000080fa00c4
:10321c00000006000000fa00817420009140780044
:10322c0000ccb30000c060007041b30048e7b700a9
:10323c00313a800000e02f00808060008005200083
:10324c0001007000303a8800203a80000060a10034
:10325c000070a100203a8800213a800000fe2f0067
:10326c00008060000000a000203a880012c0b3006b
:10327c0080c7b300a1c9b300337420008049780023
:10328c008149780082497800103a8000004078002b
:10329c00004178000204a00060c4b30071c5b30003
:1032ac002374200080497800814978008249780095
:1032bc0000000000103a80004c00de006740600007
:1032cc00e14f5000fbff3a005927a800c03a80009c
:1032dc000000a0000010a1000020a100c03a88004e
:1032ec005ac7bf000000a0000010a0000020a000e2
:1032fc005ae7b700c03a80000050a1000060a0005f
:10330c000070a000c03a880059a7a80059e7a8008f
:10331c0000000000c03a80004e00de0061406000fa
:10332c00e14f5000fbff3a0000000000103a800013
:10333c004500de0061406000e14f5000fbff3a00a9
:10334c00000000000080fa00000006000000fa00f7
:10335c000e2eef001e2eef003e2eef002e2eef0055
:10336c004e2eef006e2eef0080cea90080aea9008d
:10337c00808ea900816ea900714ea90091eea90062
:10338c00000ea900012ea900014ea900706ea90023
:10339c000e00070003000700000000000080fa0088
:1033ac00000006000000fa002174200062042000d6
:1033bc0073052000824878008348780042c7a80033
:1033cc00000000000080fa00000006000000fa0077
:1033dc0021742000620420007305200082487800cc
:1033ec008348780042c7a900000000000080fa0062
:0433fc0000000600c7
:020000040000fa
:10340000001000000c0000008000000014100000fc
:1034100006000000800000001e10000026000000d2
:10342000800000000c100000080000008200000076
:103430000000480042a95f006358000044100000eb
:103440000c000000800000001a10000002000000c4
:10345000800000001c10000002000000800000003e
:043460000000000068
:020000040000fa
:0200000401f009
:04000800cfffff0027
:020000040000fa
:0200000401f009
:04000c00f9ffff00f9
:020000040000fa
:0200000401f009
:040010005bffff0093
:020000040000fa
:0200000401f009
:040014007fffff006b
:020000040000fa
:0200000401f009
:04001800cfffff0017
:020000040000fa
:0200000401f009
:04001c00deffff0004
:020000040000fa
:0200000401f009
:04002000cfffff000f
:00000001FF
